:100000000C9435000C945D000C945D000C945D0024
:100010000C945D000C945D000C945D000C945D00EC
:100020000C945D000C945D000C945D000C945D00DC
:100030000C945D000C945D000C945D000C945D00CC
:100040000C9489020C945D000C9457020C943102BC
:100050000C945D000C945D000C945D000C945D00AC
:100060000C945D000C945D004D0411241FBECFEF75
:10007000D8E0DEBFCDBF11E0A0E0B1E0EAECFDE0EA
:1000800002C005900D92AC35B107D9F722E0ACE57E
:10009000B1E001C01D92A230B207E1F710E0C5E364
:1000A000D0E004C02197FE010E94D806C433D107D6
:1000B000C9F70E94D3020C94E3060C940000CF927F
:1000C000DF92EF92FF920F931F93CF93DF936C0118
:1000D0007A018B01C0E0D0E0CE15DF0581F0D801B8
:1000E0006D918D01D601ED91FC910190F081E02D93
:1000F000C6010995892B11F02196EECF7E01C7012B
:10010000DF91CF911F910F91FF90EF90DF90CF90F3
:100110000895089580E090E00895FC01538D448D8A
:10012000252F30E0842F90E0821B930B541710F0A2
:10013000CF96089501970895FC01918D828D9817AF
:1001400061F0828DDF01A80FB11D5D968C91928DBB
:100150009F5F9F73928F90E008958FEF9FEF0895B8
:10016000FC01918D828D981731F0828DE80FF11D81
:10017000858D90E008958FEF9FEF0895FC01918D9C
:10018000228D892F90E0805C9F4F821B91098F7395
:100190009927089585E691E00E94BE0021E0892B11
:1001A00009F420E0822F0895FC01848DDF01A80F5F
:1001B000B11DA35ABF4F2C91848D90E001968F738F
:1001C0009927848FA689B7892C93A089B1898C91AE
:1001D000837080648C93938D848D981306C00288FD
:1001E000F389E02D80818F7D80830895EF92FF92C7
:1001F0000F931F93CF93DF93EC0181E0888F9B8D4A
:100200008C8D981305C0E889F989808185FD26C009
:10021000F62E0B8D10E00F5F1F4F0F731127E02E8E
:100220008C8DE8120CC00FB607FCFACFE889F9896B
:10023000808185FFF5CFCE010E94D400F1CF8B8D58
:10024000FE01E80FF11DE35AFF4FF0829FB7F894CB
:100250000B8FEA89FB89808180620AC09FB7F8947E
:10026000EE89FF896083E889F989808183708064E1
:1002700080839FBF81E090E0DF91CF911F910F912C
:10028000FF90EF900895CF93DF93EC01888D882342
:10029000C9F0EA89FB89808185FD05C0A889B989F3
:1002A0008C9186FD0FC00FB607FCF5CF808185FFCE
:1002B000F2CFA889B9898C9185FFEDCFCE010E943C
:1002C000D400E7CFDF91CF91089580E090E0892BB3
:1002D00029F00E94CA0081110C94000008953FB7D4
:1002E000F8948091610190916201A0916301B091B5
:1002F000640126B5A89B05C02F3F19F00196A11DEA
:10030000B11D3FBFBA2FA92F982F8827820F911DAB
:10031000A11DB11DBC01CD0142E0660F771F881FF2
:10032000991F4A95D1F708958F929F92AF92BF92ED
:10033000CF92DF92EF92FF926B017C010E946F01DE
:100340004B015C01C114D104E104F104F1F00E94FD
:100350006F01DC01CB0188199909AA09BB09883E04
:100360009340A105B10570F321E0C21AD108E1085C
:10037000F10888EE880E83E0981EA11CB11CC11400
:10038000D104E104F10419F7DDCFFF90EF90DF9085
:10039000CF90BF90AF909F908F900895009769F095
:1003A000FC0101900020E9F73197AF01481B590B80
:1003B000BC0185E691E00C945F0080E090E0089538
:1003C000CF93DF930E94CE01EC0182E191E00E9485
:1003D000CE018C0F9D1FDF91CF9108958F929F9238
:1003E000AF92BF920F931F93CF93DF93CDB7DEB73A
:1003F000A1970FB6F894DEBF0FBECDBF19A2423051
:1004000008F44AE08E010F5D1F4F842E912CA12C21
:10041000B12CA50194010E94B606E62FB901CA01CC
:1004200001501109EA3014F4E05D01C0E95CD80123
:10043000EC93232B242B252B61F7C8010E94CE01BE
:10044000A1960FB6F894DEBF0FBECDBFDF91CF915E
:100450001F910F91BF90AF909F908F9008950E9431
:10046000DE061F920F920FB60F9211242F933F9327
:100470004F935F936F937F938F939F93AF93BF93AC
:10048000EF93FF9385E691E00E94D400FF91EF91F6
:10049000BF91AF919F918F917F916F915F914F919C
:1004A0003F912F910F900FBE0F901F9018951F92A4
:1004B0000F920FB60F9211242F938F939F93EF9368
:1004C000FF93E0917501F09176018081E0917B01CD
:1004D000F0917C0182FD12C0908180917E018F5F3E
:1004E0008F7320917F01821751F0E0917E01F0E03F
:1004F000EB59FE4F958F80937E0101C08081FF9163
:10050000EF919F918F912F910F900FBE0F901F90A1
:1005100018951F920F920FB60F9211242F933F93AD
:100520008F939F93AF93BF9380915D0190915E01F4
:10053000A0915F01B091600130915C0123E0230F35
:100540002D3720F40196A11DB11D05C026E8230F0B
:100550000296A11DB11D20935C0180935D019093D3
:100560005E01A0935F01B093600180916101909161
:100570006201A0916301B09164010196A11DB11DBA
:100580008093610190936201A0936301B093640131
:10059000BF91AF919F918F913F912F910F900FBE7F
:1005A0000F901F901895789484B5826084BD84B5AF
:1005B000816084BD85B5826085BD85B5816085BD5E
:1005C00080916E00816080936E0010928100809116
:1005D000810082608093810080918100816080939E
:1005E0008100809180008160809380008091B100C3
:1005F00084608093B1008091B00081608093B000EE
:1006000080917A00846080937A0080917A00826081
:1006100080937A0080917A00816080937A00809143
:100620007A00806880937A001092C100E091750191
:10063000F091760182E08083E0917101F091720186
:100640001082E0917301F09174018FEC808310921D
:100650007D01E0917901F0917A0186E08083E0915B
:100660007701F0917801808180618083E09177014A
:10067000F0917801808188608083E0917701F0912A
:100680007801808180688083E0917701F091780122
:1006900080818F7D808385E191E00E94E0018AE284
:1006A00091E00E94E00187E391E00E94CE014AE0E0
:1006B00066E370E080E090E00E94EE0189E491E062
:1006C0000E94E00185E191E00E94E00184E191E077
:1006D0000E94E00160ED77E080E090E00E949401EC
:1006E000C0E4C0937C0080917A00806480937A009B
:1006F00080917A0086FDFCCF60917800709179003E
:10070000072E000C880B990B0E948F0529E23CE50F
:100710004FE950E40E94440620E030E040E85AE30C
:100720000E9444062CE83EE24AEB5DE30E94EC04A2
:100730006B017C014B015C018BE491E00E94CE01D6
:10074000A7019601C701B6010E94B106882319F0DE
:100750008FE491E01AC026013701E89477F82FEF73
:100760003FEF4FE75FE7C301B2010E94B10681117D
:100770000FC02FEF3FEF4FE75FE7C301B2010E94C9
:10078000E70418162CF483E591E00E94CE0178C0AE
:100790002FEF3FEF4FE75FE4C701B6010E943F062E
:1007A00018161CF487E591E0F0CF2FEF3FEF4FE7ED
:1007B0005FECC701B6010E94E70487FDF3CF20E09C
:1007C00030E0A901C701B6010E94E70487FF0BC012
:1007D0006DE285E691E00E94F60046015701B7FA06
:1007E000B094B7F8B0942AE037ED43EA5BE3C50173
:1007F000B4010E947B044B015C010E945E056B0109
:100800007C010E948D059B01AC01C501B4010E94D1
:100810007A044B015C014AE0C701B6010E94EE0177
:100820006EE285E691E00E94F60020E030E040E2D2
:1008300051E4C501B4010E9444064B015C010E94D1
:100840005E056B01E12CF12C4AE0C701B6010E9464
:10085000EE01C701B6010E948D059B01AC01C501E7
:10086000B4010E947A0420E030E040E251E40E94AA
:1008700044060E945E0580E090E04AE00E94EE019E
:1008800082E191E00E94CE016AE070E080E090E0B9
:100890000E9494010E94650124CFE5E6F1E01382F5
:1008A000128288EE93E0A0E0B0E084839583A68373
:1008B000B78384E091E09183808385EC90E0958715
:1008C000848784EC90E09787868780EC90E0918B1A
:1008D000808B81EC90E0938B828B82EC90E0958B07
:1008E000848B86EC90E0978B868B118E128E138E04
:1008F000148E08955058BB27AA270E9492040C9486
:1009000005060E94F70538F00E94FE0520F039F434
:100910009F3F19F426F40C94F4050EF4E095E7FBE0
:100920000C94EE05E92F0E94160658F3BA176207D9
:1009300073078407950720F079F4A6F50C94380620
:100940000EF4E0950B2EBA2FA02D0B01B9019001EA
:100950000C01CA01A0011124FF27591B99F0593F2E
:1009600050F4503E68F11A16F040A22F232F342F76
:100970004427585FF3CF469537952795A795F040C4
:100980005395C9F77EF41F16BA0B620B730B840BD9
:10099000BAF09150A1F0FF0FBB1F661F771F881F91
:1009A000C2F70EC0BA0F621F731F841F48F48795E9
:1009B00077956795B795F7959E3F08F0B0CF9395DB
:1009C000880F08F09927EE0F9795879508950E9454
:1009D000CA0508F481E008950E9400050C940506FC
:1009E0000E94FE0558F00E94F70540F029F45F3F91
:1009F00029F00C94EE0551110C9439060C94F40571
:100A00000E94160668F39923B1F3552391F3951BC1
:100A1000550BBB27AA2762177307840738F09F5F1F
:100A20005F4F220F331F441FAA1FA9F335D00E2E8C
:100A30003AF0E0E832D091505040E695001CCAF7F9
:100A40002BD0FE2F29D0660F771F881FBB1F2617BC
:100A500037074807AB07B0E809F0BB0B802DBF0193
:100A6000FF2793585F4F3AF09E3F510578F00C9462
:100A7000EE050C9439065F3FE4F3983ED4F3869577
:100A800077956795B795F7959F5FC9F7880F911D83
:100A90009695879597F90895E1E0660F771F881F6F
:100AA000BB1F621773078407BA0720F0621B730B22
:100AB000840BBA0BEE1F88F7E09508950E941E067E
:100AC00088F09F5798F0B92F9927B751B0F0E1F00F
:100AD000660F771F881F991F1AF0BA95C9F714C0BF
:100AE000B13091F00E943806B1E008950C943806B8
:100AF000672F782F8827B85F39F0B93FCCF38695F8
:100B000077956795B395D9F73EF490958095709554
:100B100061957F4F8F4F9F4F0895E89409C097FBD1
:100B20003EF490958095709561957F4F8F4F9F4FC4
:100B30009923A9F0F92F96E9BB279395F695879508
:100B400077956795B795F111F8CFFAF4BB0F11F4CB
:100B500060FF1BC06F5F7F4F8F4F9F4F16C0882372
:100B600011F096E911C0772321F09EE8872F762FA8
:100B700005C0662371F096E8862F70E060E02AF0E9
:100B80009A95660F771F881FDAF7880F96958795D5
:100B900097F90895990F0008550FAA0BE0E8FEEFAA
:100BA00016161706E807F907C0F012161306E40731
:100BB000F50798F0621B730B840B950B39F40A262A
:100BC00061F0232B242B252B21F408950A2609F408
:100BD000A140A6958FEF811D811D089597F99F670C
:100BE00080E870E060E008959FEF80EC08950024B5
:100BF0000A941616170618060906089500240A9482
:100C000012161306140605060895092E0394000C07
:100C100011F4882352F0BB0F40F4BF2B11F460FF96
:100C200004C06F5F7F4F8F4F9F4F089557FD9058BF
:100C3000440F551F59F05F3F71F04795880F97FBA0
:100C4000991F61F09F3F79F087950895121613065A
:100C50001406551FF2CF4695F1DF08C01616170689
:100C60001806991FF1CF86957105610508940895BE
:100C7000E894BB2766277727CB0197F908950E9450
:100C8000CA0508F48FEF08950E9457060C940506D4
:100C90000E94F70538F00E94FE0520F0952311F020
:100CA0000C94EE050C94F40511240C9439060E9462
:100CB000160670F3959FC1F3950F50E0551F629F84
:100CC000F001729FBB27F00DB11D639FAA27F00DA5
:100CD000B11DAA1F649F6627B00DA11D661F829FCC
:100CE0002227B00DA11D621F739FB00DA11D621FB1
:100CF000839FA00D611D221F749F3327A00D611DCE
:100D0000231F849F600D211D822F762F6A2F1124AF
:100D10009F5750409AF0F1F088234AF0EE0FFF1FE2
:100D2000BB1F661F771F881F91505040A9F79E3F39
:100D3000510580F00C94EE050C9439065F3FE4F306
:100D4000983ED4F3869577956795B795F795E7958F
:100D50009F5FC1F7FE2B880F911D9695879597F998
:100D600008950E94CA05880B990B0895A1E21A2ED6
:100D7000AA1BBB1BFD010DC0AA1FBB1FEE1FFF1F3F
:100D8000A217B307E407F50720F0A21BB30BE40B8F
:100D9000F50B661F771F881F991F1A9469F76095D6
:100DA0007095809590959B01AC01BD01CF01089590
:100DB000EE0FFF1F0590F491E02D099481E090E083
:0A0DC000F8940C94E306F894FFCFBA
:100DCA0000000000F6005F008D004301BE009C0099
:100DDA00B0000D0A002D2D2D2D2D2D2D2D2D2D2D53
:100DEA002D2D2D2D2D2D2D2D2D00444320564F4CCC
:100DFA00544D45544552004D6178696D756D2056C4
:100E0A006F6C746167653A20005600563A20006E8E
:0C0E1A00616E00696E66006F7666000075
:00000001FF

